:020000040800F2
:1030000028040020B15B0008695900086B590008CA
:103010006D5900086F590008715900080000000040
:1030200000000000000000000000000075590008CA
:10303000735900080000000077590008795900080A
:103040007B5900087D5900087F5900088159000804
:1030500083590008855900088759000889590008D4
:103060008B5900088D5900088F59000891590008A4
:103070009359000895590008975900089959000874
:103080009B5900089D5900089F590008A159000844
:10309000A3590008A5590008A7590008A959000814
:1030A000AB590008AD590008AF590008B1590008E4
:1030B000B3590008355A0008375A0008395A000831
:1030C0003B5A00083D5A00083F5A0008415A000880
:1030D000435A0008455A0008475A0008495A000850
:0C30E0004B5A00084D5A00084F5A0008D7
:1030EC002DE9F04794B000F0B4FC4FF4165000F00A
:1030FC0024FCDFF8080900F0A1FC00F0B2FB00F0A2
:10310C0014FF01210C2001F096F80121DFF8F008E2
:10311C0001F0A1F80220ADF8000000208DF80300AA
:10312C0003208DF8020000A9DFF8D80801F0E8F8B8
:10313C00002001F017F801214FF4007001F07BF82A
:10314C0000200F9001208DF8400001208DF84100E7
:10315C005FF4602011900020129001208DF84C003B
:10316C000FA9DFF8A40801F03DF90723012209217A
:10317C00DFF8940801F093F90121DFF88C0801F0D5
:10318C0056F9DFF8840801F05FF9DFF87C0801F0EC
:10319C0060F90028F9D1DFF8700801F064F9DFF864
:1031AC00680801F065F90028F9D118208DF80300A2
:1031BC000420ADF8000003208DF8020000A9DFF810
:1031CC004C0801F09DF804208DF803000920ADF89F
:1031DC00000000A9DFF8340801F092F81C208DF8EB
:1031EC00040000208DF8050000208DF80600012059
:1031FC008DF8070001A801F0BBF94EF65F20ADF881
:10320C0010000B20ADF812000020ADF814000020C7
:10321C00ADF8160004A95FF0804001F009FA012214
:10322C000B215FF0804001F06CFA0020ADF8340007
:10323C000120ADF836000020ADF8380000208DF8E4
:10324C003A000020ADF832000CA95FF0804001F08C
:10325C00FEF901215FF0804001F039FA01220221D0
:10326C005FF0804001F041FA4FF4165006900020B8
:10327C00ADF81C000020ADF81E000020ADF82000B9
:10328C000020ADF822000C20ADF824000020ADF891
:10329C0026000020ADF828004FF40070ADF82A008D
:1032AC000020ADF82C00012240F22551DFF8600718
:1032BC0001F090FB06A9DFF8580701F02DFB012166
:1032CC00DFF84C0701F078FB0121DFF83C0701F037
:1032DC00D9F80025012000F0CFFD02A980B200F042
:1032EC00A3F90500002604E002A8305C00F088F980
:1032FC00761CAE42F8DBDFF81C0700F09FFB0A20BF
:10330C0000F0C8FA022000F0B7FD02A980B200F06C
:10331C008BF90500002604E002A8305C00F070F97F
:10332C00761CAE42F8DBDFF8F00600F087FB0A20D3
:10333C0000F0B0FA5FF0000A01E01AF1010ABAF1EC
:10334C00B40F57DA2021DFF8C80601F070FB002813
:10335C00F8D0DFF8BC0601F066FB0500DFF8B0061C
:10336C0001F061FB0600DFF8A80601F05CFB07002A
:10337C00DFF89C0601F057FB8046DFF8940601F05D
:10338C0052FB8146EDB2472DD7D1F6B2502ED4D197
:10339C00FFB2472FD1D15FFA88F8B8F1470FCCD1E3
:1033AC005FFA89F9B9F1410FC7D1EDB2290089B2A1
:1033BC00DFF8680601F033FBF6B2310089B2DFF8B2
:1033CC005C0601F02CFBFFB2390089B2DFF84C0629
:1033DC0001F025FB5FFA88F8414689B2DFF83C061C
:1033EC0001F01DFB5FFA89F9494689B2DFF82C061A
:1033FC0001F015FB5FF0000A01E01AF1010ABAF1C5
:10340C00B40F66DA2021DFF8080601F010FB002863
:10341C00F8D0DFF8FC0501F006FB0500EDB2290041
:10342C0089B2DFF8F80501F0FAFADFF8E40501F0EB
:10343C00FAFA0600F6B2310089B2DFF8E00501F0C5
:10344C00EEFADFF8CC0501F0EEFA0700FFB2390016
:10345C0089B2DFF8C80501F0E2FADFF8B40501F033
:10346C00E2FA80465FFA88F8414689B2DFF8AC058B
:10347C0001F0D5FADFF8980501F0D5FA81465FFA2C
:10348C0089F9494689B2DFF8940501F0C8FAEDB222
:10349C00472DB2D1F6B2502EAFD1FFB2562FACD1D0
:1034AC005FFA88F8B8F1540FA7D15FFA89F9B9F12E
:1034BC00470FA2D1DFF8580501F0B5FA0500EDB2BF
:1034CC00290089B2DFF8540501F0A9FAEDB2472DB5
:1034DC0093D100F0FFF953A000F0B0FA642000F093
:1034EC00D9F9DFF83C050588DFF838050068844217
:1034FC0007D1302000F084F8DFF82C0500F09EFA9C
:10350C0012E0280080B200F073F802A9280080B203
:10351C0000F0D1F80500002404E002A8205C00F0C3
:10352C006FF8641CAC42F8DB642000F0B3F9DFF8F0
:10353C00F80400F083FADFF8EC0404680020DFF8EC
:10354C00C80401F00EF80500ADB2280001F084FAB1
:10355C0000F0D8F9DFF8D40400F070FAADB242F202
:10356C00107095FBF0F03030C0B200F038FAADB20C
:10357C004FF47A7095FBF0F00A2190FBF1F201FB0D
:10358C0012003030C0B200F02AFAADB2642095FBC4
:10359C00F0F00A2190FBF1F201FB12003030C0B2C6
:1035AC0000F01DFAADB20A2095FBF0F00A2190FB59
:1035BC00F1F201FB12003030C0B200F010FAADB2E3
:1035CC000A2095FBF0F100FB11503030C0B200F036
:1035DC0006FADFF85C0400F031FA0025EDB2032D99
:1035EC00BFF677AE4AF6FF7000F0EFF96D1CF5E709
:1035FC000021012180B289B290FBF1F108007047E3
:10360C0080B5C0B2010089B2DFF8100401F007FAEE
:10361C008021DFF8080401F00AFA0028F8D001BD77
:10362C00000000000D0A000080B2B0F1650240F20B
:10363C0083339A4224D280B2642290FBF2F230326D
:10364C000A7080B20A78303A642303FB12020A2310
:10365C0092FBF3F230324A702E228A700A78303A9A
:10366C00642303FB12004A78303A0A2303FB12004E
:10367C003030C8700D2008710A204871062019E0FE
:10368C0080B2B0F10B02592A14D280B20A2290FBFC
:10369C00F2F230320A702E224A700A78303A0A233B
:1036AC0003FB1200303088700D20C8700A2008719E
:1036BC000520FFE7704710B480B242F211729042BD
:1036CC0042DB80B242F2107290FBF2F230320A709E
:1036DC0080B20A78303A42F2107303FB12024FF4B4
:1036EC007A7392FBF3F230324A7080B20A78303A35
:1036FC0042F2107303FB12024B78303B4FF47A7496
:10370C0004FB1322642392FBF3F230328A7080B2F2
:10371C000A78303A42F2107303FB12004A78303ABE
:10372C004FF47A7303FB12008A78303A642303FB5C
:10373C0012000A2290FBF2F03030C8700D20087194
:10374C000A20487106208AE080B2A0F2E93242F2E7
:10375C0027339A423AD280B24FF47A7290FBF2F24B
:10376C0030320A7080B20A78303A4FF47A7303FB25
:10377C001202642392FBF3F230324A7080B20A7860
:10378C00303A4FF47A7303FB12024B78303B6424CB
:10379C0004FB13220A2392FBF3F230328A700A786C
:1037AC00303AE82303FB12004A78303A642303FBD7
:1037BC0012008A78303A0A2303FB12003030C870AA
:1037CC000D2008710A204871062048E080B2B0F143
:1037DC00650240F283339A4222D280B2642290FB7B
:1037EC00F2F230320A7080B20A78303A642303FB6A
:1037FC0012020A2392FBF3F230324A700A78303A02
:10380C00642303FB12004A78303A0A2303FB1200AC
:10381C00303088700D20C8700A20087105201EE019
:10382C0080B2B0F10B02592A12D280B20A2290FB5C
:10383C00F2F230320A700A78303A0A2303FB120093
:10384C00303048700D2088700A20C870042006E0C3
:10385C00303008700D2048700A208870032010BC8E
:10386C00704700B583B00121012000F0F4FC41F653
:10387C001F40ADF802000020ADF806000920ADF89D
:10388C0000000020ADF8040000A95FF0804000F0BB
:10389C00CFFE07BD38B5040001215FF0804000F079
:1038AC0016FF00250CE001215FF0804000F05DFF69
:1038BC000028F8D001215FF0804000F060FF6D1C03
:1038CC00ADB2A4B2A542EED300215FF0804000F06F
:1038DC00FEFE31BD80B5002120214D4801F0A7F836
:1038EC000028F9D04A4801F09EF80100C9B289B20B
:1038FC004A4801F094F88021484801F098F80028D3
:10390C00F9D001BD38B504004FF40C7549482100BD
:10391C0001F0B2F8484901F02DF90400280001F03B
:10392C0091F8210001F0A8F801F066F901F094F883
:10393C000400200001F060F932BD10B588B004001D
:10394C00012144F2040000F076FC18208DF80300ED
:10395C004FF40070ADF8000003208DF8020000A9B0
:10396C002A4800F0CDFC04208DF803004FF4806051
:10397C00ADF8000000A9254800F0C2FC019400201D
:10398C00ADF808000020ADF80A000020ADF80C00DE
:10399C000020ADF80E000C20ADF810000020ADF8A2
:1039AC0012000020ADF814004FF40070ADF81600B2
:1039BC000020ADF8180001A9184800F0ADFF012156
:1039CC00164800F0F9FF08B010BD01B402E00098F1
:1039DC00401E009000980028F9D101B0704780B5C6
:1039EC00C0B2010089B20D4801F019F880210B48D2
:1039FC0001F01DF80028F9D001BD00006C5B000837
:103A0C0001000200000C01400024014000080140AC
:103A1C0000440040BC5B0008C45B00080038014057
:103A2C00200000200C000020805B0008905B000848
:103A3C00CC5B000800C07F44000080BF10B50400C0
:103A4C0003E02078FFF7CBFF641C20780028F8D126
:103A5C0010BD80B500F0C0FA5FF4803000F0FFFAC2
:103A6C0000F027FBC0B2012824D1102001F0E2F8AD
:103A7C00022001F0D3F8002000F058FB002000F0E9
:103A8C0067FB4FF4806000F05AFB5FF4E0115FF4C9
:103A9C00803000F02FFB012000F036FB392000F0C5
:103AAC00EAFB0028FAD0022000F032FB00F039FBD0
:103ABC000828FBD14FF440515FF0006000F0A5FDE9
:103ACC0001BD000080B50221DFF88C0400F083FCFE
:103ADC0001BD80B50221DFF8800400F07FFC01BD40
:103AEC0080B50221DFF8700400F06AFC02BD80B5DD
:103AFC000220DFF8681408801020DFF86014C8700A
:103B0C00DFF85814DFF8500400F0FAFB01BD80B563
:103B1C000220DFF8481408800420DFF84014C87035
:103B2C00DFF83814DFF8300400F0EAFB01BD80B593
:103B3C000121DFF8240400F04EFC01BD80B5012109
:103B4C00DFF8140400F04AFC01BD002203E0491C1C
:103B5C000329FCD3521C80B2824201D20021F7E728
:103B6C007047000038B504000025FFF7C0FF802522
:103B7C000BE0FFF7AEFFFFF7DAFF00BF00BFFFF768
:103B8C00DDFFEDB2022095FBF0F5EDB2002D06D075
:103B9C002800C0B22042ECD0FFF794FFEBE7FFF710
:103BAC0091FFFFF7B4FF00BF00BFFFF7C0FFFFF7A7
:103BBC0097FF0500FFF7C2FFFFF799FF2800C0B27F
:103BCC0032BD000070B504000026FFF7A0FFFFF720
:103BDC0079FF00BF00BF802510E0FFF7A8FF00BFF2
:103BEC0000BFFFF77DFF002800D02E43FFF7A6FF94
:103BFC0000BF00BFEDB2022095FBF0F5EDB2002D39
:103C0C00EBD1FFF774FFE4B2002C02D0FFF761FF99
:103C1C0001E0FFF757FFFFF78AFF00BF00BFFFF778
:103C2C008DFF00BF00BFFFF74DFF3000C0B270BD6D
:103C3C0080B5FFF747FFFFF781FF00BF00BFFFF71D
:103C4C0076FF00BF00BFFFF744FF00BF00BFFFF7C8
:103C5C0075FF00BF00BFFFF76AFF00BF00BFFFF793
:103C6C0031FF00BF00BFFFF769FF01BD10B5FFF7C3
:103C7C0029FFFFF763FF002404E0FFF758FFFFF76D
:103C8C005DFF641CE4B2092CF7DBFFF7D1FF10BD1C
:103C9C00F8B505000E0017000024FFF7C9FFFFB2AE
:103CAC00012F02D0022F05D009E00320FFF75AFFA5
:103CBC00041904E00520FFF755FF0419FFE7A4B22F
:103CCC00002C02D02000C0B222E0FFF720FF4FF4FE
:103CDC00FA70FFF73AFFFFF703FF0028F7D1FFF761
:103CEC0016FF0120FFF76EFF07000120FFF76AFFA8
:103CFC00BFB24FF4807180B201FB07002880002016
:103D0C00FFF760FF30800020954908702000C0B29A
:103D1C00F2BD2DE9F0478A46DFF84892924C934D5C
:103D2C00DFF84C82934E80B200F096FE07001FFA2B
:103D3C008AFA504600F090FE00F08AFF8E4A8F4BB4
:103D4C0000F0AEFF00228E4B01F07CF801F0EEF893
:103D5C0082462800390001F031F9390001F02EF9C2
:103D6C0005002000390001F029F9290000F002FFBC
:103D7C00494600F0FFFE04008248514600F0FAFE6E
:103D8C0005003000390001F019F9414600F0F2FE4F
:103D9C00290001F013F9210000F0ECFE04002000D2
:103DAC00794901F077F900D8784C2000784901F076
:103DBC0083F900D2764C7748514601F0FFF801F0B8
:103DCC008DF9754908807348210001F0F7F801F06E
:103DDC0085F972490880BDE8F087F8B506000F0038
:103DEC00380000F035FF00226D4B00F059FF040045
:103DFC000D00380000F02CFF6A4A6B4B01F022F8E2
:103E0C0002000B002000290001F08AF9674A684B78
:103E1C0001F018F804000D00300000F019FF01F05B
:103E2C00AAFA22002B0001F00DF800225FF04043AB
:103E3C0001F008F801F07AF80600300000F008FFF5
:103E4C005A4A5C4B00F0FEFF564A574B00F028FFD5
:103E5C0004000D00300000F0FBFE02000B00564881
:103E6C00564901F08BFA02000B002000290001F0EA
:103E7C0057F901F05BF8F2BD10B5514908700020FC
:103E8C0050490880022250495048FFF701FF4D4924
:103E9C000988C0B240184B49088001224A494C4855
:103EAC00FFF7F6FE47490988C0B24018454908801B
:103EBC0044480088002802D0FFF7D8FE18E0444898
:103ECC00018842480088FFF724FF3D48007800280D
:103EDC000ED13F48008800F0BFFD01000C003B48AC
:103EEC00008800F0B9FD2100FFF777FF3949086021
:103EFC0033480078002808D136480168254801F07D
:103F0C005DF801F0EBF880B20EE02D480078022845
:103F1C0002D12248008807E029480078012802D104
:103F2C001D48008800E0002010BD80B50121102044
:103F3C0000F081F9032009490880032007498870A3
:103F4C0010200649C8700549034800F0D9F9FFF75D
:103F5C008DFE01BD00000000001001400800002093
:103F6C0025000020000080C054E3253DA2E73BB6AD
:103F7C000AD7233CACC5A7387B14AE47E17A843F03
:103F8C00000044C00000C8C10100C8420000C84283
:103F9C00CDCCCC3D000020411400002016000020A8
:103FAC0000001E409A99999999A96D4085B1852078
:103FBC000725E53F0725E5BF185B087250522040E6
:103FCC00240000201C0000201E00002018000020EF
:103FDC001A000020040000200020DFF8D81208602E
:103FEC000020DFF8D41208601420DFF8D01208602B
:103FFC000020DFF8CC1208600020DFF8C81208603F
:10400C00DFF8C402006850F00100DFF8BC12086051
:10401C00DFF8B8020068DFF8B8120840DFF8AC121D
:10402C000860DFF8A4020068DFF8A8120840DFF887
:10403C0098120860DFF89002006830F48020DFF8F6
:10404C0088120860DFF88402006830F4FE00DFF8A4
:10405C007C1208600020DFF8801208607047DFF8DF
:10406C006812096831F48031DFF85C221160DFF8E6
:10407C005812096831F48021DFF84C221160B0F538
:10408C00803F03D0B0F5802F09D011E0DFF8380263
:10409C00006850F48030DFF83012086008E0DFF878
:1040AC002802006850F4A020DFF81C120860FFE71B
:1040BC00704780B5312000F0DEF8DFF82012087070
:1040CC00DFF81C020068401CDFF814120860DFF8EF
:1040DC000C020078002804D1DFF804020068FF28E5
:1040EC00E8D1312000F0C7F8002801D0012000E011
:1040FC00002002BD0022754A126832F47C1208437B
:10410C000243724802607047C0B27649086070473B
:10411C0000216E4909688908890001436B480160D8
:10412C0070476A48006810F00C007047002167491E
:10413C00096831F0F00101436448016070470021C7
:10414C006249096831F4E0610143604801607047DD
:10415C0000215E49096831F4605151EAC0015B48A5
:10416C000160704700215949096831F4404101430D
:10417C00564801607047002100210022002153495C
:10418C00096811F00C01002904D0042905D0082974
:10419C0006D021E05549016020E0544901601DE042
:1041AC004A49096811F47011890C891C474A126834
:1041BC0012F48032002A03D14D4A514301600AE0C7
:1041CC00424A1268920303D5494A5143016002E006
:1041DC00464A5143016001E0444901603B4909688A
:1041EC0011F0F0010909434A895C02681300CB40C5
:1041FC0043603649096811F4E061090A3D4A895C5B
:10420C0042681300CB4083603049096811F4605157
:10421C00C90A384A895C42681300CB40C3602B49F9
:10422C00096811F44041890B334A895CC268B2FBBE
:10423C00F1F101617047C9B2002905D02049096824
:10424C0008431F49086005E01D49096831EA000070
:10425C001B4908607047C9B2002905D01949096883
:10426C0008431849086005E01649096831EA00005E
:10427C00144908607047002100220021C0B2410996
:10428C00C9B2012902D110490A6806E0022902D1FB
:10429C0015490A6801E019490A68C0B210F01F01FB
:1042AC001000C840C00701D5012100E00021080022
:1042BC00C0B270470C1002401010024014100240A3
:1042CC00181002401C100240001002400410024062
:1042DC000000FFF8FFFFF6FE081002402600002049
:1042EC0010000020600042422010024000127A00B0
:1042FC0000093D00A05B0008D45B000824100240BC
:10430C0070B4002200250023002600240025CA7862
:10431C0012F00F02CB78DB0601D58B781A430B78A1
:10432C001B0621D0046800231AE0012515FA03F6B8
:10433C000D883540B54212D19E000F25B540AC43D7
:10434C0012FA06F52C43CD78282D02D101259D407B
:10435C004561CD78482D02D101259D4005615B1C3E
:10436C00082BE2D3046000240B88FF2B26DD446865
:10437C00002320E0012513F1080615FA06F60D8836
:10438C003540B54216D19E000F25B540AC4312FA0C
:10439C0006F52C43CD78282D04D1012513F1080600
:1043AC00B5404561CD78482D04D1012513F108069F
:1043BC00B54005615B1C082BDCD3446070BC7047B6
:1043CC000022806889B2084201D0012200E000225C
:1043DC001000C0B2704789B20161704789B2416167
:1043EC007047000030B4002200234268DFF87841A7
:1043FC0022400C680D7954EA0524224342608268FD
:10440C00DFF868412240CC688D682C434D7954EA22
:10441C00450422438260C26A32F47002097C491E50
:10442C000B43DBB252EA0352C26230BC7047C9B2D2
:10443C00002904D0816851F00101816003E081689A
:10444C004908490081607047816851F0080181601A
:10445C00704700218068000701D5012100E0002190
:10446C000800C0B27047816851F004018160704748
:10447C0000218068400701D5012100E000210800DF
:10448C00C0B27047C9B2002904D0816851F4A001B0
:10449C00816003E0816831F4A00181607047F0B461
:1044AC0000240025C9B20A2911DBC4680725B1F123
:1044BC000A0603277E43B540AC43DBB2B1F10A05D3
:1044CC000326754313FA05F52C43C4600EE004690A
:1044DC000725032606FB01F6B540AC43DBB20325EA
:1044EC0005FB01F513FA05F52C430461D2B2072A3A
:1044FC0010DA446B1F23551E0526754313FA05F578
:10450C00AC43C9B2521E05235A4311FA02F52C438F
:10451C00446324E0D2B20D2A10DA046B1F23D51F9A
:10452C000526754313FA05F5AC43C9B2D21F052312
:10453C005A4311FA02F52C43046310E0C46A1F239A
:10454C00B2F10D050526754313FA05F5AC43C9B256
:10455C000D3A05235A4311FA02F52C43C462F0BC00
:10456C007047C06C80B27047FFFEF0FFFDF7F1FFA3
:10457C0010B400220021002300230F24C17800294D
:10458C0037D02849096811F4E061D1F5E0610A0AD5
:10459C00D2F1040321000C00D440417811FA03F24B
:1045AC00817821400A431201017811F00301C9B24C
:1045BC00C9008A40194903789B1051F82310FF2336
:1045CC00047814F00304E4B2E400A34099431A40C5
:1045DC001143124A03789B1042F8231001210278F0
:1045EC0012F01F029140104A0078401142F820103E
:1045FC0009E00121027812F01F029140064A00786E
:10460C00401142F8201010BC7047084A1140084372
:10461C00034908607047000080E100E000E400E01E
:10462C0008ED00E00CED00E000E100E080FFFF1F72
:10463C000A8882854A880285028812F08F020280DD
:10464C0002888B88C988194311430180704738B59B
:10465C0004000D002888072834D1688800280AD166
:10466C00AB7AEA88A988200000F0D4F829892000C8
:10467C0000F055F82AE0688801280AD1AB7AEA885C
:10468C00A988200000F0E6F82989200000F050F8F5
:10469C001CE0688802280AD1AB7AEA88A988200035
:1046AC0000F0F9F82989200000F04CF80EE0AB7A04
:1046BC00EA88A988200000F00EF92989200000F072
:1046CC004AF803E02900200000F05EF831BDC9B2C1
:1046DC00002904D0018851F00101018004E0018817
:1046EC0040F2FE32114001807047D2B2002A03D052
:1046FC0082891143818103E0828932EA010181813F
:10470C007047018592B2012A04D1818A51F00101CE
:10471C00818203E0818A11F00101818270470022BD
:10472C00028B4FF6F3731A4089B20A430283704727
:10473C000022028B4FF2FF331A40090289B20A435E
:10474C00028370470022828B4FF6F3731A4089B2B2
:10475C000A43828370470022828B4FF2FF331A4048
:10476C00090289B20A43828370470022008A0842F8
:10477C0001D0012200E000221000C0B27047028A72
:10478C0032EA010101827047F8B504000D000026E1
:10479C000127A888002801D1022600E00026E8881D
:1047AC00012801D1022700E001276888002818D1D0
:1047BC00AB7AEA88A988200000F02CF8298920001F
:1047CC00FFF7ADFFAB7AFFB23A0092B2F6B231000E
:1047DC0089B2200000F03EF829892000FFF7A8FFDD
:1047EC0017E0AB7AEA88A988200000F033F8298911
:1047FC002000FFF79DFFAB7AFFB23A0092B2F6B2FF
:10480C00310089B2200000F005F829892000FFF75B
:10481C0086FFF1BDF0B400240025048B058C068CBA
:10482C0043F232373E4006844FF60C76344092B257
:10483C00DBB21B019BB21A43144343F230321540D6
:10484C0089B251F001010D430021018304830584D9
:10485C00F0BC7047F0B4002400250026048B058CB6
:10486C000E01B6B2018C43F223373940018440F675
:10487C00FF410C40DBB2190389B20C43110289B21F
:10488C000C4343F203310D4056F010010D430483E9
:10489C000584F0BC7047F0B4002400250026848BFE
:1048AC00058C0E02B6B2018C43F2332739400184D9
:1048BC004FF60C710C4092B2DBB2190189B2114364
:1048CC000C4343F233010D4056F480710D43848345
:1048DC000584F0BC7047F0B4002400250026848BBE
:1048EC00058C0E03B6B2018C42F233373940018489
:1048FC0040F6FF410C40DBB2190351EA022189B2A8
:10490C000C4340F233310D4056F480510D438483F7
:10491C000584F0BC7047000030B585B004000D0074
:10492C000020002000210021208A4CF2FF010840C9
:10493C00E988EA8911432A8A11436A8A1143AA8AAF
:10494C001143084320820020A0894EF6F311084041
:10495C00A9882A891143AA8911430843A081002000
:10496C00A08A4FF6FF41084069890843A0820020C5
:10497C0000A8FFF700FC0F48844201D1039800E027
:10498C0002981921484329688900B0FBF1F1642091
:10499C00B1FBF0F000010209642303FB12110901C1
:1049AC0032316422B1FBF2F111F00F010843208186
:1049BC0005B030BD00380140C9B2002904D081894E
:1049CC0051F40051818104E081894DF6FF72114050
:1049DC008181704730B400230024002400250B0093
:1049EC00DBB25B09DBB289B211F01F04012111FAB1
:1049FC0004F40500012B01D10C3504E0022B01D18C
:104A0C00103500E01435D2B2002A03D028682043B8
:104A1C00286002E02868A043286030BC7047C905B4
:104A2C00C90D818070478088C005C00D7047002279
:104A3C000088084201D0012200E000221000C0B220
:104A4C0070470000002840F10980F446404200F015
:104A5C0005F850F000406047002800BF0AD0B0FABB
:104A6C0080F18840D1F19D01C905020672F1004226
:104A7C0041EB10207047000010B5FF2313EAD0540F
:104A8C001DBF13EAD1529C429A4239E0A41ADA07AC
:104A9C0080EA0103134042EA012142EA0020421A53
:104AAC003CBF641E01EB4202090AB2FBF1FE01FBA2
:104ABC001E221202B2FBF1F001FB10226EF30F204A
:104ACC001202B2FBF1FE4EEA00207F3406DDFE2C12
:104ADC0024DA53EA500050EBC45010BDD4F1020458
:104AEC0001FB1E2240F08071192C1DDC21FA04F010
:104AFC00C4F12004A140114371F10042584110BD92
:104B0C009C421ABF03EAD1529A420FE080EA010E8E
:104B1C000EF00043400004D0490016D143F0FF4092
:104B2C0010BD490008BFD343180010BD9C4205D1ED
:104B3C00D21AF7D001F00041484010BD4A0212BF12
:104B4C000846484000F0004010BD4AB90902B1FACD
:104B5C0081F2914044B1A418C00140F000409EE79E
:104B6C00C90141F0004152420002B0FA80F4A04069
:104B7C00141B94E790EA010F44BF81F0004100F050
:104B8C00BDBC00BF421A3CBF801A89184FF0004CC4
:104B9C00C0F3C752FF2A24D0C1F3C75313B3D21AA0
:104BAC00D2F1190327DD4CEA01214CFA03F321EA77
:104BBC000303D140C20D4CEA0020401834BF20EA58
:104BCC000C004CEA5000D20553EA006373EB0C0C5A
:104BDC0052EB1020420012F1807F38BF7047C00D9D
:104BEC00C0057047490212BF9A4200EB5120F8E70A
:104BFC00D2F11703D9D5704740000DD2010E7F3981
:104C0C000AD4D1F11F0104D4C00140F00040C840C7
:104C1C0070477FF000007047002070470B4909680F
:104C2C0011F03801094A116008490968084307491D
:104C3C00086070470549096831F01001034A11609A
:104C4C000249096808430149086070470020024086
:104C5C005FF0FF0C1CEAD05114BF614506E0C11097
:104C6C00400721F0E04101F16051704779B900F043
:104C7C00004100020AD0B0FA80FC00FA0CF001F1FD
:104C8C006051A1EB0C5101EBD02140057047410262
:104C9C000CBF40F4E0016FF00001002070470000F1
:104CAC00B0B581EA030C0CF0004C40F2FF7515EA2C
:104CBC0011541DBF15EA1357AC42AF4239E0E41949
:104CCC0023EA455343F48013C90241F0004141EA01
:104CDC00505EC7021100A7FB020200284FF0000033
:104CEC00EEFB01204FF00001E3FB072118BF42F05F
:104CFC000102401800214941E3FB0E01A4F5806438
:104D0C000F0302D252004041494154F101046CDDC1
:104D1C00470872F1004250F1000051EB0451A1F52B
:104D2C0080115CBF41EA0C01B0BD4CEA055100207A
:104D3C00B0BD05EA1357AC4214BFAF4241E050EA94
:104D4C00410E1CBF52EA430E02E061460020B0BD8A
:104D5C0024423C441BD15FEA070EF6D0090302BF84
:104D6C0001460020AEF1140EB1FA81F7AEEB070448
:104D7C0001FA07FE0C37C7F1200100FA07F7C8400B
:104D8C004EEA000E23EA455343F48013A2E733F0B6
:104D9C000043B3FA83F704BFB2FA82FE77440B3FA9
:104DAC00E41BB7F1200E2FBF02FA0EF3BB40C7F184
:104DBC00200E22FA0EFE38BF43EA0E03BA40641CE2
:104DCC0082E750EA410E14BF52EA430E6FF0000125
:104DDC004FF4001717EB430F8ABF194617EB410F1F
:104DEC00B5E74CEA05510020B0BDD4F10104B4F193
:104DFC0020070FDAC4F12007520828BF42F0010245
:104E0C0010FA07F501FA07F7E1BF2A43E0403843EF
:104E1C00E1400FE0352C98DCC7F1200452EA400247
:104E2C0020FA07F218BF42F0010231FA07F0A14054
:104E3C000A43002172F1004250F1000051EB0C01C9
:104E4C00B0BD0000F0B44FF0004591EA030C44BF34
:104E5C006B4000F09DBA00BF841A71EB030603D2BD
:104E6C00001BB141121973414FF4001C1CEB410F94
:104E7C0034BF7CEB430443E00C0DA4EB1356352EEE
:104E8C0050DC45EAC323DB0A45EAC121C912B6F15D
:104E9C0020050DDD63FA05F6EB4086EA03051242A8
:104EAC0018BF45F00105C01851F100010CD213E0F8
:104EBC0062FA06F5F2405540F3415A40B340F340D4
:104ECC005A408018594107D349085FEA30005FEA1D
:104EDC00350528BF45F0010501F58011420875F133
:104EEC00004250F1000041EB0451F0BC4FF4001CA7
:104EFC001CEB410F38BF70470020090D09057047A6
:104F0C001CEB410F10D252EA43060BD0BCEB410F05
:104F1C0005D80C0DAB43661E342EB5DD02E0AB4359
:104F2C0080185941F0BC7047F0BC70474FEAF17CD7
:104F3C00BCF1E04C2CBFBCF5001F11E05FEA4C0C3F
:104F4C0034BFBCF17F5F2EE05FEA9C0C4FEA0C1C77
:104F5C004FEA3C0CC10071F100414CEB50707047B2
:104F6C00C90241EA5051C00218BF41F0010141F0A1
:104F7C0000414FEA6C50C0F10900212810D240EAE0
:104F8C00CC7CCCF1200C11FA0CF070F10040CCF17F
:104F9C00200C21FA0CF00CF0004C40EB0C0070478C
:104FAC004FEACC707047490011F5001F04D84FEA46
:104FBC00CC10FF30C0057047C8177047FF2212EAAB
:104FCC00D05C1DBF12EAD153944593422BE09C4414
:104FDC00D30780EA01021A4043EA002043EA012188
:104FEC00A1FB0030410038BF40007CF17F010BDB9E
:104FFC00FE294ADA5B0842EAC15153EA006373F1B5
:10500C00004C51EB10207047D1F1080CDCF1200161
:10501C002FDB5B0810FA01F10B4373F1004120FA0E
:10502C000CF05041704794451CBF02EAD153934297
:10503C0080EA010202F000421DD0400019D0490064
:10504C0017D05BB9634514D00902B1FA81F39940CA
:10505C00BCEB030CC00140F00040C1E70002B0FA09
:10506C0080FC10FA0CF0B3EB0C0CC90141F00041C0
:10507C00B6E71000704740000AD0490008D010F184
:10508C00807F94BF11F1807F02E042F0FF407047B7
:10509C00D04370474FF0807C1CEB400F94BF1CEB4F
:1050AC00410F05E040EA010C5FEA4C0C01D2814251
:1050BC00704718BF884270474FF0807C1CEB400F44
:1050CC0094BF1CEB410F05E040EA010C5FEA4C0C6D
:1050DC0001D28842704718BF814270474100090EC7
:1050EC007F3915D4D1F11F0114D4400007D2C0016F
:1050FC0040F00040C84048BF6FF000407047C0010E
:10510C0040F00040C8404CBF4FF000404042704758
:10511C000020704700424FF0004058BFC04370471A
:10512C002DE9F04140F2FF7581EA030C0CF0004CC4
:10513C0015EA11541DBF15EA1357AC42AF42E9E012
:10514C00BC41C1F31301C3F31303801A994143F417
:10515C00801304D2641E4000494180185941C90291
:10516C0041EA5051B1FBF3F603FB1611A2FB067595
:10517C00D7EBC020A94102D2761E80185941C90232
:10518C0041EA5051B1FBF3FE03FB1E11A2FB0E755D
:10519C00D7EBC020A94103D2AEF1010E80185941C2
:1051AC00890241EA9051760546EA8E2EB1FBF3F660
:1051BC0003FB1611A2FB0675D7EB8020A94102D286
:1051CC00761E80185941C90241EA50514EEA060E2A
:1051DC00B1FBF3F603FB1611A2FB0675D7EBC0204F
:1051EC00A94102D2761E80185941C90241EA505198
:1051FC00B1FBF3F703FB1711A2FB0735D3EBC02070
:10520C00A94167F100070CBF004247F0010766F3A4
:10521C00D5274FEA1E31B80814F5806414DDBD079C
:10522C0075F1004250EB0E5051EB045111F5801FFB
:10523C005CBF41EA0C01BDE8F0814CF07F6141F0AC
:10524C00E0410020BDE8F081BD076D0840EA0E503A
:10525C0041F48011D4F10104B4F120060ADAC4F14E
:10526C0020060200E04001FA06F3E1401843B24088
:10527C0015430EE0342C14DCC6F1200445EA40053D
:10528C006D0820FA06F2154321FA06F0A1400D43F1
:10529C00002175F1004250F1000051EB0C01BDE80A
:1052AC00F08100205FEA0C01BDE8F081CFB99218C3
:1052BC005B41B3FA83F704BFB2FA82F6BF190B3F16
:1052CC00B7F120062FBF02FA06F3BB40C7F1200648
:1052DC0022FA06F638BF3343BA401CB1E419641EF7
:1052EC002FE77F4231F00041B1FA81F404BFB0FAEC
:1052FC0080F6A4190B3CB4F120062FBF00FA06F17E
:10530C00A140C4F1200620FA06F638BF3143A04074
:10531C003C1B16E7AC421ABF05EA1357AF4214E028
:10532C0050EA41061CBF52EA4306BFE750EA410768
:10533C00304661461CBF41EA0551BDE8F08152EA96
:10534C00430C08BFC143BDE8F08100204FF40016A8
:10535C0016EB410F98BF16EB430F08BF16EB410F2E
:10536C0024BFC14305E016EB430F0CBF61464CEA6A
:10537C000551BDE8F081012200F02CB9F0B44FF0DA
:10538C00004591EA030F44BF6B40FFF765BD00BFBA
:10539C00841A71EB030604D26E40001BB141121942
:1053AC0073414FF4001C1CEB410F34BF7CEB4306E4
:1053BC0084E00C0DA4EB1356362E7DDC012E43DC61
:1053CC0045EAC32343EA525312BFD20292025B084E
:1053DC00240545EAC12141EA5051D2EBC020994144
:1053EC0025D407D1B0FA80F610FA06F164D000206B
:1053FC00203608E0B1FA81F6B140C6F1200220FA5D
:10540C0002F21143B0404FEAF474B4EB465434F05A
:10541C0001064FEA74040AD8D6F50016760D04F08E
:10542C000044F04061FA06F25040F1404840C00A96
:10543C0040EA415021F0004128BF5FEA500550F18D
:10544C00000044EBD12137E045EAC323DB0A45EAEF
:10545C00C121C90AB6F120050EDD42EA0242120C46
:10546C00C5F1200603FA06F6EB4042EA06056D424A
:10547C00984161F100010DE062FA06F5F2405540E9
:10548C0063FA06FC82EA0C02F3405A406D429041EA
:10549C0061EB030111F4801F05D1641E620502D07B
:1054AC006D004041494121F48011430875F10043DE
:1054BC0050F1000041EB0451F0BC70471CEB410F64
:1054CC0015D223F0004352EA43060BD04FEA4C0CA2
:1054DC00BCEB410F04D80C0D661E342EB7DDEBE788
:1054EC00801A994150EA410608BF0021E4E708BF41
:1054FC001CEB430F28BF6FF00001DDE7431A4FF0A0
:10550C0000423EBF5340C01AC91800BFD3095FEA1E
:10551C00D05C13EB400F34BFB3EB410F40E07CEB9E
:10552C00D1530CD342EA012122D8D1EB402009D32C
:10553C00400A28BF5FEA500140EBCC507047401A3C
:10554C0015D04002B0FA80F2521C9040400A4FEA4B
:10555C003C23B3EB026384BF00EB730007E040F421
:10556C0000001A16DB07C2F10102D0401843704745
:10557C00182BFCDC31FA03F202FA03F3591A38BF88
:10558C0042F00102D2EB40203CBF4000ACF1010CD8
:10559C005FEACC5CC20572F100414CEB50207047C5
:1055AC0013EB400F0FD24B0009D0ACEBD153022BB5
:1055BC0003DB4902172BDDDD70479143401A430092
:1055CC00D5D10020704713EB410FD0D36FF0000002
:1055DC00704700002DE9F64D03B4C1F30A5040F2B8
:1055EC00FF71884284B00CD105980027000304BFDA
:1055FC000498002802D10598002817D4DDE904018D
:10560C000EE101280BDA04A800F050F9012806DBA2
:10561C0000F06EF9222101600020834900E1059A17
:10562C0040F2FE3161F31E520592471A059800288C
:10563C0008D500F05DF9212101604FF0FF306FF0CB
:10564C000041EDE0DDE90401784A794B00F056F9B0
:10565C0009D2DDE9042300204FF08041FFF720FB45
:10566C00CDE904017F1EDDE9042300207149FFF719
:10567C00E9FBDDE9042304460D4600206E49FFF7E3
:10568C00E1FB02460B4620462946FFF749FD8246C0
:10569C008B4652465B46FFF703FB06468846674837
:1056AC00674932464346FFF7FBFA664A664BFFF7FB
:1056BC00C9FB32464346FFF7F3FA644A644BFFF7E3
:1056CC00C1FB32464346FFF7EBFA624A624BFFF7E7
:1056DC00B9FB32464346FFF7E3FA604A604BFFF7EB
:1056EC00B1FB32464346FFF7DBFA5E4A5E4BFFF7EF
:1056FC00A9FB32464346FFF7D3FA5C4A5C4BFFF7F3
:10570C00A1FB32464346FFF7CBFA02460B46204636
:10571C002946FFF733FE52465B46FFF7C1FA0646B1
:10572C00884638B200F002F9074607988B46C8B98C
:10573C00504851493A465B46FFF7B2FA3246434667
:10574C00FFF71CFE22462B46FFF77CFB04460D465A
:10575C004FF0404049493A465B46FFF7A1FA2246D2
:10576C002B465BE0012836DB0020454922462B46C0
:10577C00FFF796FACDE902012246424842492B46F0
:10578C00FFF78EFACDE900013A46404840495B46A6
:10579C00FFF786FA04460D46304641463D4A384BE3
:1057AC00FFF77EFA02460B4620462946FFF7E6FD38
:1057BC00DDE90023FFF746FBDDE90223FFF742FB9F
:1057CC0004460D46002034493A465B46FFF768FA1A
:1057DC0022462B4622E04FF0C040304922462B4651
:1057EC00FFF75EFACDE9000122462D482D492B46E4
:1057FC00FFF756FA04460D462B48284932464346D5
:10580C00FFF74EFA02460B4620462946FFF7B6FD37
:10581C00DDE90023FFF716FB3A465B46FFF712FB68
:10582C0008B0BDE8F08D00000000F0FFCD3B7F66B6
:10583C009EA0E63F0000F0BF0000F03FF7DE29BF5E
:10584C00D8F8C23FF4B3FECC1A99C33F62CB68D9E7
:10585C006F46C73FC6C912DAC471CC3F4AE98A9475
:10586C002449D23FF75F97999999D93FBC55555523
:10587C005555E53F9EBC9AF71C7D7F3E422EE63F78
:10588C007BCBDB3FABA6320EE526553E7CC4BC7F02
:10589C00DE27743E0EE526151344D33F4715F73F1C
:1058AC0044DF5DF80BAE543EFE822B6530B443688A
:1058BC0003F0004201211B031B0B436004BF036870
:1058CC00002B08D10DE00368DD0F45EA4404446069
:1058DC005B000360491E4468E302F4D523031B0BF1
:1058EC00436043681A434260084630BC704700006E
:1058FC00014800F031B80000000000204FF4001CFB
:10590C001CEB410F94BF1CEB430F09E041EA030C65
:10591C0050EA4C0C52EA0C0C03D2994208BF90424C
:10592C00704714BF8B42824270470000010040F167
:10593C000780F446404200F003F851F00041604704
:10594C0009D0B0FA80F18840C91CC1F58461090501
:10595C0001EBD02140057047704700007047FEE70F
:10596C00FEE7FEE7FEE770477047704770477047E9
:10597C007047704770477047704770477047704763
:10598C007047704770477047704770477047704753
:10599C007047704770477047704770477047704743
:1059AC00704770477047184A128892072BD5174AD0
:1059BC001288920727D5164A1268521C144B1A608B
:1059CC004FF6FD72104B1A80124A1268D2070DD591
:1059DC001148008880B2421A01001048008850F02B
:1059EC0002000E4908800E4802800CE00A49098822
:1059FC0089B2081A094909884FF6FD721140074A05
:105A0C001180084908807047100000400C000040CD
:105A1C000C00002008080140340000402000004029
:105A2C00200000202200002070477047704770470C
:105A3C0070477047704770477047704770477047A2
:105A4C007047704730BF704720BF704740BF7047EA
:105A5C00BFF36F8F7047BFF34F8F7047BFF35F8FEC
:105A6C00704701DF7047EFF31480704780F31488A0
:105A7C00BFF36F8F7047EFF30980704780F309888D
:105A8C007047EFF30880704780F30888704772B650
:105A9C00704762B6704771B6704761B6704780F355
:105AAC0011887047EFF31280704740BA704700BA04
:105ABC00704710B450F8041B79B10268436812188F
:105ACC000830DC0744BFA9F10104E31852F8044B79
:105ADC0043F8044B091FF9D1ECE710BC70470000E8
:105AEC0010B5074979441831064C7C44163404E04F
:105AFC000A68081D511888470146A142F8D110BD0B
:105B0C000800000018000000ABFFFFFF2800000099
:105B1C00BC000000000000200000000000F00BF8AA
:105B2C00002801D0FFF7DCFF0020C046C046FDF77F
:105B3C00D7FA00F002F80120704700F001B800001D
:105B4C000746384600F002F8FBE7000080B5C04677
:105B5C00C046024A11001820ABBEFBE7260002002B
:105B6C000A0D204144432053746172742121200D8D
:105B7C000A000000204C20706572205365630D0AEA
:105B8C0000000000205761746572284C29203A20CF
:105B9C0000000000000000000102030401020304E5
:105BAC0006070809C046C046C046C046FFF7B6FF08
:105BBC0020430D0A0000000020250D0A0000000003
:105BCC00204C200D0A0D0A000204060800000000FB
:105BDC0000000000000000000000000000000000B9
:105BEC0000000000000000000000000000000000A9
:045BFC0000000000A5
:0400000508005BB1E3
:00000001FF
